{
  "contractName": "VendingMachine",
  "abi": [
    {
      "inputs": [],
      "stateMutability": "nonpayable",
      "type": "constructor"
    },
    {
      "inputs": [
        {
          "internalType": "address",
          "name": "",
          "type": "address"
        }
      ],
      "name": "donutBalances",
      "outputs": [
        {
          "internalType": "uint256",
          "name": "",
          "type": "uint256"
        }
      ],
      "stateMutability": "view",
      "type": "function",
      "constant": true
    },
    {
      "inputs": [],
      "name": "owner",
      "outputs": [
        {
          "internalType": "address",
          "name": "",
          "type": "address"
        }
      ],
      "stateMutability": "view",
      "type": "function",
      "constant": true
    },
    {
      "inputs": [],
      "name": "getVendingMachineBalance",
      "outputs": [
        {
          "internalType": "uint256",
          "name": "",
          "type": "uint256"
        }
      ],
      "stateMutability": "view",
      "type": "function",
      "constant": true
    },
    {
      "inputs": [
        {
          "internalType": "uint256",
          "name": "amount",
          "type": "uint256"
        }
      ],
      "name": "restock",
      "outputs": [],
      "stateMutability": "nonpayable",
      "type": "function"
    },
    {
      "inputs": [
        {
          "internalType": "uint256",
          "name": "amount",
          "type": "uint256"
        }
      ],
      "name": "purchase",
      "outputs": [],
      "stateMutability": "payable",
      "type": "function",
      "payable": true
    }
  ],
  "bytecode": "0x608060405234801561001057600080fd5b50336000806101000a81548173ffffffffffffffffffffffffffffffffffffffff021916908373ffffffffffffffffffffffffffffffffffffffff1602179055506064600160003073ffffffffffffffffffffffffffffffffffffffff1673ffffffffffffffffffffffffffffffffffffffff1681526020019081526020016000208190555061074f806100a56000396000f3fe60806040526004361061004a5760003560e01c80638da5cb5b1461004f5780639a020d8a1461007a578063c21a702a146100b7578063e7644d34146100e0578063efef39a11461010b575b600080fd5b34801561005b57600080fd5b50610064610127565b60405161007191906103cb565b60405180910390f35b34801561008657600080fd5b506100a1600480360381019061009c9190610417565b61014b565b6040516100ae919061045d565b60405180910390f35b3480156100c357600080fd5b506100de60048036038101906100d991906104a4565b610163565b005b3480156100ec57600080fd5b506100f56101bc565b604051610102919061045d565b60405180910390f35b610125600480360381019061012091906104a4565b610203565b005b60008054906101000a900473ffffffffffffffffffffffffffffffffffffffff1681565b60016020528060005260406000206000915090505481565b80600160003073ffffffffffffffffffffffffffffffffffffffff1673ffffffffffffffffffffffffffffffffffffffff16815260200190815260200160002060008282546101b29190610500565b9250508190555050565b6000600160003073ffffffffffffffffffffffffffffffffffffffff1673ffffffffffffffffffffffffffffffffffffffff16815260200190815260200160002054905090565b671bc16d674ec80000816102179190610556565b341015610259576040517f08c379a000000000000000000000000000000000000000000000000000000000815260040161025090610633565b60405180910390fd5b80600160003073ffffffffffffffffffffffffffffffffffffffff1673ffffffffffffffffffffffffffffffffffffffff1681526020019081526020016000205410156102db576040517f08c379a00000000000000000000000000000000000000000000000000000000081526004016102d2906106c5565b60405180910390fd5b80600160003073ffffffffffffffffffffffffffffffffffffffff1673ffffffffffffffffffffffffffffffffffffffff168152602001908152602001600020600082825461032a91906106e5565b9250508190555080600160003373ffffffffffffffffffffffffffffffffffffffff1673ffffffffffffffffffffffffffffffffffffffff16815260200190815260200160002060008282546103809190610500565b9250508190555050565b600073ffffffffffffffffffffffffffffffffffffffff82169050919050565b60006103b58261038a565b9050919050565b6103c5816103aa565b82525050565b60006020820190506103e060008301846103bc565b92915050565b600080fd5b6103f4816103aa565b81146103ff57600080fd5b50565b600081359050610411816103eb565b92915050565b60006020828403121561042d5761042c6103e6565b5b600061043b84828501610402565b91505092915050565b6000819050919050565b61045781610444565b82525050565b6000602082019050610472600083018461044e565b92915050565b61048181610444565b811461048c57600080fd5b50565b60008135905061049e81610478565b92915050565b6000602082840312156104ba576104b96103e6565b5b60006104c88482850161048f565b91505092915050565b7f4e487b7100000000000000000000000000000000000000000000000000000000600052601160045260246000fd5b600061050b82610444565b915061051683610444565b9250827fffffffffffffffffffffffffffffffffffffffffffffffffffffffffffffffff0382111561054b5761054a6104d1565b5b828201905092915050565b600061056182610444565b915061056c83610444565b9250817fffffffffffffffffffffffffffffffffffffffffffffffffffffffffffffffff04831182151516156105a5576105a46104d1565b5b828202905092915050565b600082825260208201905092915050565b7f596f75206d75737420706179206174206c65617374203220455448207065722060008201527f646f6e7574000000000000000000000000000000000000000000000000000000602082015250565b600061061d6025836105b0565b9150610628826105c1565b604082019050919050565b6000602082019050818103600083015261064c81610610565b9050919050565b7f4e6f7420656e6f75676820646f6e75747320696e2073746f636b20746f20636f60008201527f6d706c6574652074686973207075726368617365000000000000000000000000602082015250565b60006106af6034836105b0565b91506106ba82610653565b604082019050919050565b600060208201905081810360008301526106de816106a2565b9050919050565b60006106f082610444565b91506106fb83610444565b92508282101561070e5761070d6104d1565b5b82820390509291505056fea26469706673582212208e576ae6155682c20b73733fe29a77b8e47f952cffe19e76f185eed242dcb0f664736f6c634300080d0033",
  "immutableReferences": {},
  "source": "// SPDX-License-Identifier: MIT\r\npragma solidity ^0.8.11;\r\n\r\ncontract VendingMachine {\r\n\r\n    // state variables\r\n    address public owner;\r\n    mapping (address => uint) public donutBalances;\r\n\r\n    // set the owner as th address that deployed the contract\r\n    // set the initial vending machine balance to 100\r\n    constructor() {\r\n        owner = msg.sender;\r\n        donutBalances[address(this)] = 100;\r\n    }\r\n\r\n    function getVendingMachineBalance() public view returns (uint) {\r\n        return donutBalances[address(this)];\r\n    }\r\n\r\n    // Let the owner restock the vending machine\r\n    function restock(uint amount) public {\r\n        // require(msg.sender == _owner, \"Only the owner can restock.\");\r\n        donutBalances[address(this)] += amount;\r\n    }\r\n\r\n    // Purchase donuts from the vending machine\r\n    function purchase(uint amount) public payable {\r\n        require(msg.value >= amount * 2 ether, \"You must pay at least 2 ETH per donut\");\r\n        require(donutBalances[address(this)] >= amount, \"Not enough donuts in stock to complete this purchase\");\r\n        donutBalances[address(this)] -= amount;\r\n        donutBalances[msg.sender] += amount;\r\n    }\r\n}",
  "sourcePath": "C:\\Users\\Haier\\Documents\\Blockchain\\smart_contract_deployment\\contracts\\VendingMachine.sol",
  "compiler": {
    "name": "solc",
    "version": "0.8.13+commit.abaa5c0e.Emscripten.clang"
  },
  "schemaVersion": "3.4.4",
  "updatedAt": "2022-03-17T17:11:09.938Z",
  "networkType": "ethereum",
  "devdoc": {
    "kind": "dev",
    "methods": {},
    "version": 1
  },
  "userdoc": {
    "kind": "user",
    "methods": {},
    "version": 1
  }
}